{
  "_format": "hh-sol-artifact-1",
  "contractName": "REDToken",
  "sourceName": "contracts/REDToken.sol",
  "abi": [
    {
      "inputs": [],
      "stateMutability": "nonpayable",
      "type": "constructor"
    },
    {
      "inputs": [],
      "name": "AccountFrozen",
      "type": "error"
    },
    {
      "inputs": [
        {
          "internalType": "address",
          "name": "spender",
          "type": "address"
        },
        {
          "internalType": "uint256",
          "name": "allowance",
          "type": "uint256"
        },
        {
          "internalType": "uint256",
          "name": "needed",
          "type": "uint256"
        }
      ],
      "name": "ERC20InsufficientAllowance",
      "type": "error"
    },
    {
      "inputs": [
        {
          "internalType": "address",
          "name": "sender",
          "type": "address"
        },
        {
          "internalType": "uint256",
          "name": "balance",
          "type": "uint256"
        },
        {
          "internalType": "uint256",
          "name": "needed",
          "type": "uint256"
        }
      ],
      "name": "ERC20InsufficientBalance",
      "type": "error"
    },
    {
      "inputs": [
        {
          "internalType": "address",
          "name": "approver",
          "type": "address"
        }
      ],
      "name": "ERC20InvalidApprover",
      "type": "error"
    },
    {
      "inputs": [
        {
          "internalType": "address",
          "name": "receiver",
          "type": "address"
        }
      ],
      "name": "ERC20InvalidReceiver",
      "type": "error"
    },
    {
      "inputs": [
        {
          "internalType": "address",
          "name": "sender",
          "type": "address"
        }
      ],
      "name": "ERC20InvalidSender",
      "type": "error"
    },
    {
      "inputs": [
        {
          "internalType": "address",
          "name": "spender",
          "type": "address"
        }
      ],
      "name": "ERC20InvalidSpender",
      "type": "error"
    },
    {
      "inputs": [],
      "name": "EnforcedPause",
      "type": "error"
    },
    {
      "inputs": [],
      "name": "ExpectedPause",
      "type": "error"
    },
    {
      "inputs": [
        {
          "internalType": "address",
          "name": "owner",
          "type": "address"
        }
      ],
      "name": "OwnableInvalidOwner",
      "type": "error"
    },
    {
      "inputs": [
        {
          "internalType": "address",
          "name": "account",
          "type": "address"
        }
      ],
      "name": "OwnableUnauthorizedAccount",
      "type": "error"
    },
    {
      "anonymous": false,
      "inputs": [
        {
          "indexed": true,
          "internalType": "address",
          "name": "owner",
          "type": "address"
        },
        {
          "indexed": true,
          "internalType": "address",
          "name": "spender",
          "type": "address"
        },
        {
          "indexed": false,
          "internalType": "uint256",
          "name": "value",
          "type": "uint256"
        }
      ],
      "name": "Approval",
      "type": "event"
    },
    {
      "anonymous": false,
      "inputs": [
        {
          "indexed": true,
          "internalType": "address",
          "name": "previousOwner",
          "type": "address"
        },
        {
          "indexed": true,
          "internalType": "address",
          "name": "newOwner",
          "type": "address"
        }
      ],
      "name": "OwnershipTransferred",
      "type": "event"
    },
    {
      "anonymous": false,
      "inputs": [
        {
          "indexed": false,
          "internalType": "address",
          "name": "account",
          "type": "address"
        }
      ],
      "name": "Paused",
      "type": "event"
    },
    {
      "anonymous": false,
      "inputs": [
        {
          "indexed": true,
          "internalType": "address",
          "name": "from",
          "type": "address"
        },
        {
          "indexed": true,
          "internalType": "address",
          "name": "to",
          "type": "address"
        },
        {
          "indexed": false,
          "internalType": "uint256",
          "name": "value",
          "type": "uint256"
        }
      ],
      "name": "Transfer",
      "type": "event"
    },
    {
      "anonymous": false,
      "inputs": [
        {
          "indexed": false,
          "internalType": "address",
          "name": "account",
          "type": "address"
        }
      ],
      "name": "Unpaused",
      "type": "event"
    },
    {
      "inputs": [],
      "name": "INITIAL_SUPPLY",
      "outputs": [
        {
          "internalType": "uint256",
          "name": "",
          "type": "uint256"
        }
      ],
      "stateMutability": "view",
      "type": "function"
    },
    {
      "inputs": [],
      "name": "NAME",
      "outputs": [
        {
          "internalType": "string",
          "name": "",
          "type": "string"
        }
      ],
      "stateMutability": "view",
      "type": "function"
    },
    {
      "inputs": [],
      "name": "SYMBOL",
      "outputs": [
        {
          "internalType": "string",
          "name": "",
          "type": "string"
        }
      ],
      "stateMutability": "view",
      "type": "function"
    },
    {
      "inputs": [
        {
          "internalType": "address",
          "name": "owner",
          "type": "address"
        },
        {
          "internalType": "address",
          "name": "spender",
          "type": "address"
        }
      ],
      "name": "allowance",
      "outputs": [
        {
          "internalType": "uint256",
          "name": "",
          "type": "uint256"
        }
      ],
      "stateMutability": "view",
      "type": "function"
    },
    {
      "inputs": [
        {
          "internalType": "address",
          "name": "spender",
          "type": "address"
        },
        {
          "internalType": "uint256",
          "name": "value",
          "type": "uint256"
        }
      ],
      "name": "approve",
      "outputs": [
        {
          "internalType": "bool",
          "name": "",
          "type": "bool"
        }
      ],
      "stateMutability": "nonpayable",
      "type": "function"
    },
    {
      "inputs": [
        {
          "internalType": "address",
          "name": "account",
          "type": "address"
        }
      ],
      "name": "balanceOf",
      "outputs": [
        {
          "internalType": "uint256",
          "name": "",
          "type": "uint256"
        }
      ],
      "stateMutability": "view",
      "type": "function"
    },
    {
      "inputs": [
        {
          "internalType": "uint256",
          "name": "value",
          "type": "uint256"
        }
      ],
      "name": "burn",
      "outputs": [],
      "stateMutability": "nonpayable",
      "type": "function"
    },
    {
      "inputs": [
        {
          "internalType": "address",
          "name": "account",
          "type": "address"
        },
        {
          "internalType": "uint256",
          "name": "value",
          "type": "uint256"
        }
      ],
      "name": "burnFrom",
      "outputs": [],
      "stateMutability": "nonpayable",
      "type": "function"
    },
    {
      "inputs": [],
      "name": "decimals",
      "outputs": [
        {
          "internalType": "uint8",
          "name": "",
          "type": "uint8"
        }
      ],
      "stateMutability": "view",
      "type": "function"
    },
    {
      "inputs": [
        {
          "internalType": "address",
          "name": "account",
          "type": "address"
        }
      ],
      "name": "freezeWallet",
      "outputs": [],
      "stateMutability": "nonpayable",
      "type": "function"
    },
    {
      "inputs": [
        {
          "internalType": "address",
          "name": "",
          "type": "address"
        }
      ],
      "name": "freezes",
      "outputs": [
        {
          "internalType": "bool",
          "name": "",
          "type": "bool"
        }
      ],
      "stateMutability": "view",
      "type": "function"
    },
    {
      "inputs": [
        {
          "internalType": "address",
          "name": "to",
          "type": "address"
        },
        {
          "internalType": "uint256",
          "name": "amount",
          "type": "uint256"
        }
      ],
      "name": "mint",
      "outputs": [],
      "stateMutability": "nonpayable",
      "type": "function"
    },
    {
      "inputs": [],
      "name": "name",
      "outputs": [
        {
          "internalType": "string",
          "name": "",
          "type": "string"
        }
      ],
      "stateMutability": "view",
      "type": "function"
    },
    {
      "inputs": [],
      "name": "owner",
      "outputs": [
        {
          "internalType": "address",
          "name": "",
          "type": "address"
        }
      ],
      "stateMutability": "view",
      "type": "function"
    },
    {
      "inputs": [],
      "name": "pause",
      "outputs": [],
      "stateMutability": "nonpayable",
      "type": "function"
    },
    {
      "inputs": [],
      "name": "paused",
      "outputs": [
        {
          "internalType": "bool",
          "name": "",
          "type": "bool"
        }
      ],
      "stateMutability": "view",
      "type": "function"
    },
    {
      "inputs": [],
      "name": "renounceOwnership",
      "outputs": [],
      "stateMutability": "nonpayable",
      "type": "function"
    },
    {
      "inputs": [],
      "name": "symbol",
      "outputs": [
        {
          "internalType": "string",
          "name": "",
          "type": "string"
        }
      ],
      "stateMutability": "view",
      "type": "function"
    },
    {
      "inputs": [],
      "name": "totalSupply",
      "outputs": [
        {
          "internalType": "uint256",
          "name": "",
          "type": "uint256"
        }
      ],
      "stateMutability": "view",
      "type": "function"
    },
    {
      "inputs": [
        {
          "internalType": "address",
          "name": "to",
          "type": "address"
        },
        {
          "internalType": "uint256",
          "name": "value",
          "type": "uint256"
        }
      ],
      "name": "transfer",
      "outputs": [
        {
          "internalType": "bool",
          "name": "",
          "type": "bool"
        }
      ],
      "stateMutability": "nonpayable",
      "type": "function"
    },
    {
      "inputs": [
        {
          "internalType": "address",
          "name": "from",
          "type": "address"
        },
        {
          "internalType": "address",
          "name": "to",
          "type": "address"
        },
        {
          "internalType": "uint256",
          "name": "value",
          "type": "uint256"
        }
      ],
      "name": "transferFrom",
      "outputs": [
        {
          "internalType": "bool",
          "name": "",
          "type": "bool"
        }
      ],
      "stateMutability": "nonpayable",
      "type": "function"
    },
    {
      "inputs": [
        {
          "internalType": "address",
          "name": "newOwner",
          "type": "address"
        }
      ],
      "name": "transferOwnership",
      "outputs": [],
      "stateMutability": "nonpayable",
      "type": "function"
    },
    {
      "inputs": [
        {
          "internalType": "address",
          "name": "account",
          "type": "address"
        }
      ],
      "name": "unfreezeWallet",
      "outputs": [],
      "stateMutability": "nonpayable",
      "type": "function"
    },
    {
      "inputs": [],
      "name": "unpause",
      "outputs": [],
      "stateMutability": "nonpayable",
      "type": "function"
    }
  ],
  "bytecode": "0x60806040523480156200001157600080fd5b50336040518060400160405280600a81526020017f52654465466920524544000000000000000000000000000000000000000000008152506040518060400160405280600381526020017f52454400000000000000000000000000000000000000000000000000000000008152508160039081620000909190620008b8565b508060049081620000a29190620008b8565b505050600073ffffffffffffffffffffffffffffffffffffffff168173ffffffffffffffffffffffffffffffffffffffff16036200011a5760006040517f1e4fbdf7000000000000000000000000000000000000000000000000000000008152600401620001119190620009e4565b60405180910390fd5b6200012b816200018c60201b60201c565b506000600560146101000a81548160ff02191690831515021790555062000186336200015c6200025260201b60201c565b600a6200016a919062000b91565b6207a1206200017a919062000be2565b6200025b60201b60201c565b62000cd3565b6000600560009054906101000a900473ffffffffffffffffffffffffffffffffffffffff16905081600560006101000a81548173ffffffffffffffffffffffffffffffffffffffff021916908373ffffffffffffffffffffffffffffffffffffffff1602179055508173ffffffffffffffffffffffffffffffffffffffff168173ffffffffffffffffffffffffffffffffffffffff167f8be0079c531659141344cd1fd0a4f28419497f9722a3daafe3b4186f6b6457e060405160405180910390a35050565b60006012905090565b600073ffffffffffffffffffffffffffffffffffffffff168273ffffffffffffffffffffffffffffffffffffffff1603620002d05760006040517fec442f05000000000000000000000000000000000000000000000000000000008152600401620002c79190620009e4565b60405180910390fd5b620002e460008383620002e860201b60201c565b5050565b600660008473ffffffffffffffffffffffffffffffffffffffff1673ffffffffffffffffffffffffffffffffffffffff16815260200190815260200160002060009054906101000a900460ff16156200036d576040517f552afea000000000000000000000000000000000000000000000000000000000815260040160405180910390fd5b620003808383836200038560201b60201c565b505050565b62000395620003ad60201b60201c565b620003a8838383620003f760201b60201c565b505050565b620003bd6200062760201b60201c565b15620003f5576040517fd93c066500000000000000000000000000000000000000000000000000000000815260040160405180910390fd5b565b600073ffffffffffffffffffffffffffffffffffffffff168373ffffffffffffffffffffffffffffffffffffffff16036200044d57806002600082825462000440919062000c2d565b9250508190555062000523565b60008060008573ffffffffffffffffffffffffffffffffffffffff1673ffffffffffffffffffffffffffffffffffffffff16815260200190815260200160002054905081811015620004dc578381836040517fe450d38c000000000000000000000000000000000000000000000000000000008152600401620004d39392919062000c79565b60405180910390fd5b8181036000808673ffffffffffffffffffffffffffffffffffffffff1673ffffffffffffffffffffffffffffffffffffffff16815260200190815260200160002081905550505b600073ffffffffffffffffffffffffffffffffffffffff168273ffffffffffffffffffffffffffffffffffffffff16036200056e5780600260008282540392505081905550620005bb565b806000808473ffffffffffffffffffffffffffffffffffffffff1673ffffffffffffffffffffffffffffffffffffffff168152602001908152602001600020600082825401925050819055505b8173ffffffffffffffffffffffffffffffffffffffff168373ffffffffffffffffffffffffffffffffffffffff167fddf252ad1be2c89b69c2b068fc378daa952ba7f163c4a11628f55a4df523b3ef836040516200061a919062000cb6565b60405180910390a3505050565b6000600560149054906101000a900460ff16905090565b600081519050919050565b7f4e487b7100000000000000000000000000000000000000000000000000000000600052604160045260246000fd5b7f4e487b7100000000000000000000000000000000000000000000000000000000600052602260045260246000fd5b60006002820490506001821680620006c057607f821691505b602082108103620006d657620006d562000678565b5b50919050565b60008190508160005260206000209050919050565b60006020601f8301049050919050565b600082821b905092915050565b600060088302620007407fffffffffffffffffffffffffffffffffffffffffffffffffffffffffffffffff8262000701565b6200074c868362000701565b95508019841693508086168417925050509392505050565b6000819050919050565b6000819050919050565b600062000799620007936200078d8462000764565b6200076e565b62000764565b9050919050565b6000819050919050565b620007b58362000778565b620007cd620007c482620007a0565b8484546200070e565b825550505050565b600090565b620007e4620007d5565b620007f1818484620007aa565b505050565b5b8181101562000819576200080d600082620007da565b600181019050620007f7565b5050565b601f82111562000868576200083281620006dc565b6200083d84620006f1565b810160208510156200084d578190505b620008656200085c85620006f1565b830182620007f6565b50505b505050565b600082821c905092915050565b60006200088d600019846008026200086d565b1980831691505092915050565b6000620008a883836200087a565b9150826002028217905092915050565b620008c3826200063e565b67ffffffffffffffff811115620008df57620008de62000649565b5b620008eb8254620006a7565b620008f88282856200081d565b600060209050601f8311600181146200093057600084156200091b578287015190505b6200092785826200089a565b86555062000997565b601f1984166200094086620006dc565b60005b828110156200096a5784890151825560018201915060208501945060208101905062000943565b868310156200098a578489015162000986601f8916826200087a565b8355505b6001600288020188555050505b505050505050565b600073ffffffffffffffffffffffffffffffffffffffff82169050919050565b6000620009cc826200099f565b9050919050565b620009de81620009bf565b82525050565b6000602082019050620009fb6000830184620009d3565b92915050565b7f4e487b7100000000000000000000000000000000000000000000000000000000600052601160045260246000fd5b60008160011c9050919050565b6000808291508390505b600185111562000a8f5780860481111562000a675762000a6662000a01565b5b600185161562000a775780820291505b808102905062000a878562000a30565b945062000a47565b94509492505050565b60008262000aaa576001905062000b7d565b8162000aba576000905062000b7d565b816001811462000ad3576002811462000ade5762000b14565b600191505062000b7d565b60ff84111562000af35762000af262000a01565b5b8360020a91508482111562000b0d5762000b0c62000a01565b5b5062000b7d565b5060208310610133831016604e8410600b841016171562000b4e5782820a90508381111562000b485762000b4762000a01565b5b62000b7d565b62000b5d848484600162000a3d565b9250905081840481111562000b775762000b7662000a01565b5b81810290505b9392505050565b600060ff82169050919050565b600062000b9e8262000764565b915062000bab8362000b84565b925062000bda7fffffffffffffffffffffffffffffffffffffffffffffffffffffffffffffffff848462000a98565b905092915050565b600062000bef8262000764565b915062000bfc8362000764565b925082820262000c0c8162000764565b9150828204841483151762000c265762000c2562000a01565b5b5092915050565b600062000c3a8262000764565b915062000c478362000764565b925082820190508082111562000c625762000c6162000a01565b5b92915050565b62000c738162000764565b82525050565b600060608201905062000c906000830186620009d3565b62000c9f602083018562000c68565b62000cae604083018462000c68565b949350505050565b600060208201905062000ccd600083018462000c68565b92915050565b6117bf8062000ce36000396000f3fe608060405234801561001057600080fd5b50600436106101585760003560e01c806370a08231116100c35780639f0011691161007c5780639f0011691461037d578063a3f4df7e14610399578063a9059cbb146103b7578063dd62ed3e146103e7578063f2fde38b14610417578063f76f8d781461043357610158565b806370a08231146102e1578063715018a61461031157806379cc67901461031b5780638456cb59146103375780638da5cb5b1461034157806395d89b411461035f57610158565b8063313ce56711610115578063313ce567146102475780633f4ba83a1461026557806340c10f191461026f57806342966c681461028b5780635c975abb146102a757806360f588b7146102c557610158565b806306fdde031461015d578063095ea7b31461017b57806312042682146101ab57806318160ddd146101db57806323b872dd146101f95780632ff2e9dc14610229575b600080fd5b610165610451565b60405161017291906113e6565b60405180910390f35b610195600480360381019061019091906114a1565b6104e3565b6040516101a291906114fc565b60405180910390f35b6101c560048036038101906101c09190611517565b610506565b6040516101d291906114fc565b60405180910390f35b6101e3610526565b6040516101f09190611553565b60405180910390f35b610213600480360381019061020e919061156e565b610530565b60405161022091906114fc565b60405180910390f35b61023161055f565b60405161023e9190611553565b60405180910390f35b61024f610566565b60405161025c91906115dd565b60405180910390f35b61026d61056f565b005b610289600480360381019061028491906114a1565b610581565b005b6102a560048036038101906102a091906115f8565b610597565b005b6102af6105ab565b6040516102bc91906114fc565b60405180910390f35b6102df60048036038101906102da9190611517565b6105c2565b005b6102fb60048036038101906102f69190611517565b610625565b6040516103089190611553565b60405180910390f35b61031961066d565b005b610335600480360381019061033091906114a1565b610681565b005b61033f6106a1565b005b6103496106b3565b6040516103569190611634565b60405180910390f35b6103676106dd565b60405161037491906113e6565b60405180910390f35b61039760048036038101906103929190611517565b61076f565b005b6103a16107d2565b6040516103ae91906113e6565b60405180910390f35b6103d160048036038101906103cc91906114a1565b61080b565b6040516103de91906114fc565b60405180910390f35b61040160048036038101906103fc919061164f565b61082e565b60405161040e9190611553565b60405180910390f35b610431600480360381019061042c9190611517565b6108b5565b005b61043b61093b565b60405161044891906113e6565b60405180910390f35b606060038054610460906116be565b80601f016020809104026020016040519081016040528092919081815260200182805461048c906116be565b80156104d95780601f106104ae576101008083540402835291602001916104d9565b820191906000526020600020905b8154815290600101906020018083116104bc57829003601f168201915b5050505050905090565b6000806104ee610974565b90506104fb81858561097c565b600191505092915050565b60066020528060005260406000206000915054906101000a900460ff1681565b6000600254905090565b60008061053b610974565b905061054885828561098e565b610553858585610a22565b60019150509392505050565b6207a12081565b60006012905090565b610577610b16565b61057f610b9d565b565b610589610b16565b6105938282610c00565b5050565b6105a86105a2610974565b82610c82565b50565b6000600560149054906101000a900460ff16905090565b6105ca610b16565b6000600660008373ffffffffffffffffffffffffffffffffffffffff1673ffffffffffffffffffffffffffffffffffffffff16815260200190815260200160002060006101000a81548160ff02191690831515021790555050565b60008060008373ffffffffffffffffffffffffffffffffffffffff1673ffffffffffffffffffffffffffffffffffffffff168152602001908152602001600020549050919050565b610675610b16565b61067f6000610d04565b565b6106938261068d610974565b8361098e565b61069d8282610c82565b5050565b6106a9610b16565b6106b1610dca565b565b6000600560009054906101000a900473ffffffffffffffffffffffffffffffffffffffff16905090565b6060600480546106ec906116be565b80601f0160208091040260200160405190810160405280929190818152602001828054610718906116be565b80156107655780601f1061073a57610100808354040283529160200191610765565b820191906000526020600020905b81548152906001019060200180831161074857829003601f168201915b5050505050905090565b610777610b16565b6001600660008373ffffffffffffffffffffffffffffffffffffffff1673ffffffffffffffffffffffffffffffffffffffff16815260200190815260200160002060006101000a81548160ff02191690831515021790555050565b6040518060400160405280600a81526020017f526544654669205245440000000000000000000000000000000000000000000081525081565b600080610816610974565b9050610823818585610a22565b600191505092915050565b6000600160008473ffffffffffffffffffffffffffffffffffffffff1673ffffffffffffffffffffffffffffffffffffffff16815260200190815260200160002060008373ffffffffffffffffffffffffffffffffffffffff1673ffffffffffffffffffffffffffffffffffffffff16815260200190815260200160002054905092915050565b6108bd610b16565b600073ffffffffffffffffffffffffffffffffffffffff168173ffffffffffffffffffffffffffffffffffffffff160361092f5760006040517f1e4fbdf70000000000000000000000000000000000000000000000000000000081526004016109269190611634565b60405180910390fd5b61093881610d04565b50565b6040518060400160405280600381526020017f524544000000000000000000000000000000000000000000000000000000000081525081565b600033905090565b6109898383836001610e2d565b505050565b600061099a848461082e565b90507fffffffffffffffffffffffffffffffffffffffffffffffffffffffffffffffff8114610a1c5781811015610a0c578281836040517ffb8f41b2000000000000000000000000000000000000000000000000000000008152600401610a03939291906116ef565b60405180910390fd5b610a1b84848484036000610e2d565b5b50505050565b600073ffffffffffffffffffffffffffffffffffffffff168373ffffffffffffffffffffffffffffffffffffffff1603610a945760006040517f96c6fd1e000000000000000000000000000000000000000000000000000000008152600401610a8b9190611634565b60405180910390fd5b600073ffffffffffffffffffffffffffffffffffffffff168273ffffffffffffffffffffffffffffffffffffffff1603610b065760006040517fec442f05000000000000000000000000000000000000000000000000000000008152600401610afd9190611634565b60405180910390fd5b610b11838383611004565b505050565b610b1e610974565b73ffffffffffffffffffffffffffffffffffffffff16610b3c6106b3565b73ffffffffffffffffffffffffffffffffffffffff1614610b9b57610b5f610974565b6040517f118cdaa7000000000000000000000000000000000000000000000000000000008152600401610b929190611634565b60405180910390fd5b565b610ba5611098565b6000600560146101000a81548160ff0219169083151502179055507f5db9ee0a495bf2e6ff9c91a7834c1ba4fdd244a5e8aa4e537bd38aeae4b073aa610be9610974565b604051610bf69190611634565b60405180910390a1565b600073ffffffffffffffffffffffffffffffffffffffff168273ffffffffffffffffffffffffffffffffffffffff1603610c725760006040517fec442f05000000000000000000000000000000000000000000000000000000008152600401610c699190611634565b60405180910390fd5b610c7e60008383611004565b5050565b600073ffffffffffffffffffffffffffffffffffffffff168273ffffffffffffffffffffffffffffffffffffffff1603610cf45760006040517f96c6fd1e000000000000000000000000000000000000000000000000000000008152600401610ceb9190611634565b60405180910390fd5b610d0082600083611004565b5050565b6000600560009054906101000a900473ffffffffffffffffffffffffffffffffffffffff16905081600560006101000a81548173ffffffffffffffffffffffffffffffffffffffff021916908373ffffffffffffffffffffffffffffffffffffffff1602179055508173ffffffffffffffffffffffffffffffffffffffff168173ffffffffffffffffffffffffffffffffffffffff167f8be0079c531659141344cd1fd0a4f28419497f9722a3daafe3b4186f6b6457e060405160405180910390a35050565b610dd26110d8565b6001600560146101000a81548160ff0219169083151502179055507f62e78cea01bee320cd4e420270b5ea74000d11b0c9f74754ebdbfc544b05a258610e16610974565b604051610e239190611634565b60405180910390a1565b600073ffffffffffffffffffffffffffffffffffffffff168473ffffffffffffffffffffffffffffffffffffffff1603610e9f5760006040517fe602df05000000000000000000000000000000000000000000000000000000008152600401610e969190611634565b60405180910390fd5b600073ffffffffffffffffffffffffffffffffffffffff168373ffffffffffffffffffffffffffffffffffffffff1603610f115760006040517f94280d62000000000000000000000000000000000000000000000000000000008152600401610f089190611634565b60405180910390fd5b81600160008673ffffffffffffffffffffffffffffffffffffffff1673ffffffffffffffffffffffffffffffffffffffff16815260200190815260200160002060008573ffffffffffffffffffffffffffffffffffffffff1673ffffffffffffffffffffffffffffffffffffffff168152602001908152602001600020819055508015610ffe578273ffffffffffffffffffffffffffffffffffffffff168473ffffffffffffffffffffffffffffffffffffffff167f8c5be1e5ebec7d5bd14f71427d1e84f3dd0314c0f7b2291e5b200ac8c7c3b92584604051610ff59190611553565b60405180910390a35b50505050565b600660008473ffffffffffffffffffffffffffffffffffffffff1673ffffffffffffffffffffffffffffffffffffffff16815260200190815260200160002060009054906101000a900460ff1615611088576040517f552afea000000000000000000000000000000000000000000000000000000000815260040160405180910390fd5b611093838383611119565b505050565b6110a06105ab565b6110d6576040517f8dfc202b00000000000000000000000000000000000000000000000000000000815260040160405180910390fd5b565b6110e06105ab565b15611117576040517fd93c066500000000000000000000000000000000000000000000000000000000815260040160405180910390fd5b565b6111216110d8565b61112c838383611131565b505050565b600073ffffffffffffffffffffffffffffffffffffffff168373ffffffffffffffffffffffffffffffffffffffff16036111835780600260008282546111779190611755565b92505081905550611256565b60008060008573ffffffffffffffffffffffffffffffffffffffff1673ffffffffffffffffffffffffffffffffffffffff1681526020019081526020016000205490508181101561120f578381836040517fe450d38c000000000000000000000000000000000000000000000000000000008152600401611206939291906116ef565b60405180910390fd5b8181036000808673ffffffffffffffffffffffffffffffffffffffff1673ffffffffffffffffffffffffffffffffffffffff16815260200190815260200160002081905550505b600073ffffffffffffffffffffffffffffffffffffffff168273ffffffffffffffffffffffffffffffffffffffff160361129f57806002600082825403925050819055506112ec565b806000808473ffffffffffffffffffffffffffffffffffffffff1673ffffffffffffffffffffffffffffffffffffffff168152602001908152602001600020600082825401925050819055505b8173ffffffffffffffffffffffffffffffffffffffff168373ffffffffffffffffffffffffffffffffffffffff167fddf252ad1be2c89b69c2b068fc378daa952ba7f163c4a11628f55a4df523b3ef836040516113499190611553565b60405180910390a3505050565b600081519050919050565b600082825260208201905092915050565b60005b83811015611390578082015181840152602081019050611375565b60008484015250505050565b6000601f19601f8301169050919050565b60006113b882611356565b6113c28185611361565b93506113d2818560208601611372565b6113db8161139c565b840191505092915050565b6000602082019050818103600083015261140081846113ad565b905092915050565b600080fd5b600073ffffffffffffffffffffffffffffffffffffffff82169050919050565b60006114388261140d565b9050919050565b6114488161142d565b811461145357600080fd5b50565b6000813590506114658161143f565b92915050565b6000819050919050565b61147e8161146b565b811461148957600080fd5b50565b60008135905061149b81611475565b92915050565b600080604083850312156114b8576114b7611408565b5b60006114c685828601611456565b92505060206114d78582860161148c565b9150509250929050565b60008115159050919050565b6114f6816114e1565b82525050565b600060208201905061151160008301846114ed565b92915050565b60006020828403121561152d5761152c611408565b5b600061153b84828501611456565b91505092915050565b61154d8161146b565b82525050565b60006020820190506115686000830184611544565b92915050565b60008060006060848603121561158757611586611408565b5b600061159586828701611456565b93505060206115a686828701611456565b92505060406115b78682870161148c565b9150509250925092565b600060ff82169050919050565b6115d7816115c1565b82525050565b60006020820190506115f260008301846115ce565b92915050565b60006020828403121561160e5761160d611408565b5b600061161c8482850161148c565b91505092915050565b61162e8161142d565b82525050565b60006020820190506116496000830184611625565b92915050565b6000806040838503121561166657611665611408565b5b600061167485828601611456565b925050602061168585828601611456565b9150509250929050565b7f4e487b7100000000000000000000000000000000000000000000000000000000600052602260045260246000fd5b600060028204905060018216806116d657607f821691505b6020821081036116e9576116e861168f565b5b50919050565b60006060820190506117046000830186611625565b6117116020830185611544565b61171e6040830184611544565b949350505050565b7f4e487b7100000000000000000000000000000000000000000000000000000000600052601160045260246000fd5b60006117608261146b565b915061176b8361146b565b925082820190508082111561178357611782611726565b5b9291505056fea26469706673582212204fc756d0140654d61cd7dfdca30740ff7a19b9ee047b37c879fc5fe1c76043f264736f6c63430008140033",
  "linkReferences": {},
  "deployedLinkReferences": {}
}