{
  "_format": "hh-sol-artifact-1",
  "contractName": "Bridge",
  "sourceName": "contracts/BridgeLinked.sol",
  "abi": [
    {
      "inputs": [
        {
          "internalType": "address",
          "name": "_admin",
          "type": "address"
        }
      ],
      "stateMutability": "nonpayable",
      "type": "constructor"
    },
    {
      "anonymous": false,
      "inputs": [
        {
          "indexed": true,
          "internalType": "bytes32",
          "name": "txHash",
          "type": "bytes32"
        },
        {
          "indexed": false,
          "internalType": "uint16",
          "name": "validatorId",
          "type": "uint16"
        }
      ],
      "name": "Confirmed",
      "type": "event"
    },
    {
      "anonymous": false,
      "inputs": [
        {
          "indexed": true,
          "internalType": "address",
          "name": "token",
          "type": "address"
        },
        {
          "indexed": true,
          "internalType": "address",
          "name": "receiver",
          "type": "address"
        },
        {
          "indexed": false,
          "internalType": "uint256",
          "name": "amount",
          "type": "uint256"
        },
        {
          "indexed": false,
          "internalType": "uint256",
          "name": "targetChainId",
          "type": "uint256"
        }
      ],
      "name": "Deposit",
      "type": "event"
    },
    {
      "anonymous": false,
      "inputs": [
        {
          "indexed": true,
          "internalType": "address",
          "name": "funder",
          "type": "address"
        },
        {
          "indexed": true,
          "internalType": "address",
          "name": "token",
          "type": "address"
        },
        {
          "indexed": false,
          "internalType": "uint256",
          "name": "amount",
          "type": "uint256"
        },
        {
          "indexed": false,
          "internalType": "bool",
          "name": "isWithdraw",
          "type": "bool"
        }
      ],
      "name": "Funded",
      "type": "event"
    },
    {
      "anonymous": false,
      "inputs": [
        {
          "indexed": true,
          "internalType": "bytes32",
          "name": "txHash",
          "type": "bytes32"
        },
        {
          "indexed": false,
          "internalType": "uint256",
          "name": "sourceChainId",
          "type": "uint256"
        }
      ],
      "name": "Listed",
      "type": "event"
    },
    {
      "anonymous": false,
      "inputs": [
        {
          "indexed": true,
          "internalType": "bool",
          "name": "state",
          "type": "bool"
        }
      ],
      "name": "MaintenanceState",
      "type": "event"
    },
    {
      "anonymous": false,
      "inputs": [
        {
          "indexed": true,
          "internalType": "address",
          "name": "admin",
          "type": "address"
        }
      ],
      "name": "NewAdmin",
      "type": "event"
    },
    {
      "anonymous": false,
      "inputs": [
        {
          "indexed": true,
          "internalType": "address",
          "name": "signer",
          "type": "address"
        }
      ],
      "name": "NewSigner",
      "type": "event"
    },
    {
      "anonymous": false,
      "inputs": [
        {
          "indexed": true,
          "internalType": "address",
          "name": "validator",
          "type": "address"
        }
      ],
      "name": "NewValidator",
      "type": "event"
    },
    {
      "anonymous": false,
      "inputs": [
        {
          "indexed": true,
          "internalType": "address",
          "name": "validator",
          "type": "address"
        }
      ],
      "name": "RemovedValidator",
      "type": "event"
    },
    {
      "anonymous": false,
      "inputs": [
        {
          "indexed": true,
          "internalType": "bytes32",
          "name": "txHash",
          "type": "bytes32"
        },
        {
          "indexed": false,
          "internalType": "uint256",
          "name": "amount",
          "type": "uint256"
        }
      ],
      "name": "Transfer",
      "type": "event"
    },
    {
      "inputs": [
        {
          "internalType": "address",
          "name": "_token",
          "type": "address"
        },
        {
          "internalType": "uint256",
          "name": "_amount",
          "type": "uint256"
        }
      ],
      "name": "addFunds",
      "outputs": [],
      "stateMutability": "payable",
      "type": "function"
    },
    {
      "inputs": [
        {
          "internalType": "uint256",
          "name": "_chainId",
          "type": "uint256"
        },
        {
          "internalType": "address",
          "name": "_contractAddress",
          "type": "address"
        }
      ],
      "name": "addLink",
      "outputs": [],
      "stateMutability": "nonpayable",
      "type": "function"
    },
    {
      "inputs": [
        {
          "internalType": "address",
          "name": "_sourceAddress",
          "type": "address"
        },
        {
          "internalType": "uint256",
          "name": "_destinationChainId",
          "type": "uint256"
        },
        {
          "internalType": "address",
          "name": "_destinationAddress",
          "type": "address"
        }
      ],
      "name": "addPair",
      "outputs": [],
      "stateMutability": "nonpayable",
      "type": "function"
    },
    {
      "inputs": [
        {
          "internalType": "address[]",
          "name": "_validators",
          "type": "address[]"
        }
      ],
      "name": "addValidators",
      "outputs": [],
      "stateMutability": "nonpayable",
      "type": "function"
    },
    {
      "inputs": [],
      "name": "admin",
      "outputs": [
        {
          "internalType": "address",
          "name": "",
          "type": "address"
        }
      ],
      "stateMutability": "view",
      "type": "function"
    },
    {
      "inputs": [
        {
          "internalType": "address",
          "name": "_token",
          "type": "address"
        }
      ],
      "name": "changeTokenStatus",
      "outputs": [],
      "stateMutability": "nonpayable",
      "type": "function"
    },
    {
      "inputs": [
        {
          "internalType": "address",
          "name": "_validator",
          "type": "address"
        },
        {
          "internalType": "bool",
          "name": "_isDeleted",
          "type": "bool"
        }
      ],
      "name": "changeValidatorState",
      "outputs": [],
      "stateMutability": "nonpayable",
      "type": "function"
    },
    {
      "inputs": [
        {
          "internalType": "bytes32[]",
          "name": "_txHashes",
          "type": "bytes32[]"
        }
      ],
      "name": "confirm",
      "outputs": [],
      "stateMutability": "nonpayable",
      "type": "function"
    },
    {
      "inputs": [
        {
          "internalType": "bytes32",
          "name": "",
          "type": "bytes32"
        }
      ],
      "name": "confirmations",
      "outputs": [
        {
          "internalType": "address",
          "name": "receiver",
          "type": "address"
        },
        {
          "internalType": "uint256",
          "name": "amount",
          "type": "uint256"
        },
        {
          "internalType": "uint16",
          "name": "tokenId",
          "type": "uint16"
        },
        {
          "internalType": "bool",
          "name": "isSent",
          "type": "bool"
        }
      ],
      "stateMutability": "view",
      "type": "function"
    },
    {
      "inputs": [
        {
          "internalType": "bytes32",
          "name": "_txHash",
          "type": "bytes32"
        }
      ],
      "name": "confirmedBy",
      "outputs": [
        {
          "internalType": "uint16[]",
          "name": "",
          "type": "uint16[]"
        }
      ],
      "stateMutability": "view",
      "type": "function"
    },
    {
      "inputs": [
        {
          "internalType": "address",
          "name": "_receiver",
          "type": "address"
        },
        {
          "internalType": "address",
          "name": "_token",
          "type": "address"
        },
        {
          "internalType": "uint256",
          "name": "_amount",
          "type": "uint256"
        },
        {
          "internalType": "uint256",
          "name": "_targetChainId",
          "type": "uint256"
        }
      ],
      "name": "deposit",
      "outputs": [],
      "stateMutability": "payable",
      "type": "function"
    },
    {
      "inputs": [
        {
          "internalType": "address",
          "name": "_token",
          "type": "address"
        },
        {
          "internalType": "bool",
          "name": "_status",
          "type": "bool"
        }
      ],
      "name": "forceChangeTokenStatus",
      "outputs": [],
      "stateMutability": "nonpayable",
      "type": "function"
    },
    {
      "inputs": [
        {
          "internalType": "address",
          "name": "_sourceAddress",
          "type": "address"
        },
        {
          "internalType": "uint256",
          "name": "_destinationChainId",
          "type": "uint256"
        }
      ],
      "name": "getDestinationAddress",
      "outputs": [
        {
          "internalType": "address",
          "name": "",
          "type": "address"
        }
      ],
      "stateMutability": "view",
      "type": "function"
    },
    {
      "inputs": [
        {
          "internalType": "address",
          "name": "_sourceAddress",
          "type": "address"
        },
        {
          "internalType": "uint256",
          "name": "_destinationChainId",
          "type": "uint256"
        }
      ],
      "name": "hasPair",
      "outputs": [
        {
          "internalType": "bool",
          "name": "",
          "type": "bool"
        }
      ],
      "stateMutability": "view",
      "type": "function"
    },
    {
      "inputs": [
        {
          "internalType": "bytes32",
          "name": "_txHash",
          "type": "bytes32"
        },
        {
          "internalType": "address",
          "name": "_validator",
          "type": "address"
        }
      ],
      "name": "isConfirmedBy",
      "outputs": [
        {
          "internalType": "bool",
          "name": "",
          "type": "bool"
        }
      ],
      "stateMutability": "view",
      "type": "function"
    },
    {
      "inputs": [],
      "name": "isMaintenanceEnabled",
      "outputs": [
        {
          "internalType": "bool",
          "name": "",
          "type": "bool"
        }
      ],
      "stateMutability": "view",
      "type": "function"
    },
    {
      "inputs": [
        {
          "internalType": "uint16",
          "name": "",
          "type": "uint16"
        }
      ],
      "name": "isPairDeleted",
      "outputs": [
        {
          "internalType": "bool",
          "name": "",
          "type": "bool"
        }
      ],
      "stateMutability": "view",
      "type": "function"
    },
    {
      "inputs": [
        {
          "internalType": "address",
          "name": "_validator",
          "type": "address"
        }
      ],
      "name": "isValidator",
      "outputs": [
        {
          "internalType": "bool",
          "name": "",
          "type": "bool"
        }
      ],
      "stateMutability": "view",
      "type": "function"
    },
    {
      "inputs": [
        {
          "internalType": "address",
          "name": "",
          "type": "address"
        }
      ],
      "name": "isValidatorDeleted",
      "outputs": [
        {
          "internalType": "bool",
          "name": "",
          "type": "bool"
        }
      ],
      "stateMutability": "view",
      "type": "function"
    },
    {
      "inputs": [
        {
          "internalType": "uint256",
          "name": "",
          "type": "uint256"
        }
      ],
      "name": "links",
      "outputs": [
        {
          "internalType": "address",
          "name": "",
          "type": "address"
        }
      ],
      "stateMutability": "view",
      "type": "function"
    },
    {
      "inputs": [
        {
          "internalType": "uint256[][]",
          "name": "_args",
          "type": "uint256[][]"
        }
      ],
      "name": "list",
      "outputs": [],
      "stateMutability": "nonpayable",
      "type": "function"
    },
    {
      "inputs": [],
      "name": "owner",
      "outputs": [
        {
          "internalType": "address",
          "name": "",
          "type": "address"
        }
      ],
      "stateMutability": "view",
      "type": "function"
    },
    {
      "inputs": [
        {
          "internalType": "uint256",
          "name": "",
          "type": "uint256"
        }
      ],
      "name": "pairs",
      "outputs": [
        {
          "internalType": "address",
          "name": "sourceAddress",
          "type": "address"
        },
        {
          "internalType": "uint256",
          "name": "destinationChainId",
          "type": "uint256"
        },
        {
          "internalType": "address",
          "name": "destinationAddress",
          "type": "address"
        }
      ],
      "stateMutability": "view",
      "type": "function"
    },
    {
      "inputs": [
        {
          "internalType": "address[]",
          "name": "_tokens",
          "type": "address[]"
        }
      ],
      "name": "registerTokens",
      "outputs": [],
      "stateMutability": "nonpayable",
      "type": "function"
    },
    {
      "inputs": [
        {
          "internalType": "address",
          "name": "",
          "type": "address"
        }
      ],
      "name": "registeredTokens",
      "outputs": [
        {
          "internalType": "uint16",
          "name": "tokenId",
          "type": "uint16"
        },
        {
          "internalType": "bool",
          "name": "isOwn",
          "type": "bool"
        }
      ],
      "stateMutability": "view",
      "type": "function"
    },
    {
      "inputs": [
        {
          "internalType": "address",
          "name": "_sourceAddress",
          "type": "address"
        },
        {
          "internalType": "uint256",
          "name": "_destinationChainId",
          "type": "uint256"
        }
      ],
      "name": "removePair",
      "outputs": [],
      "stateMutability": "nonpayable",
      "type": "function"
    },
    {
      "inputs": [],
      "name": "requiredConfirmations",
      "outputs": [
        {
          "internalType": "uint16",
          "name": "",
          "type": "uint16"
        }
      ],
      "stateMutability": "view",
      "type": "function"
    },
    {
      "inputs": [
        {
          "internalType": "address",
          "name": "_admin",
          "type": "address"
        }
      ],
      "name": "setAdmin",
      "outputs": [],
      "stateMutability": "nonpayable",
      "type": "function"
    },
    {
      "inputs": [
        {
          "internalType": "uint16",
          "name": "_confirmations",
          "type": "uint16"
        }
      ],
      "name": "setRequiredConfirmations",
      "outputs": [],
      "stateMutability": "nonpayable",
      "type": "function"
    },
    {
      "inputs": [
        {
          "internalType": "address",
          "name": "_signer",
          "type": "address"
        }
      ],
      "name": "setSigner",
      "outputs": [],
      "stateMutability": "nonpayable",
      "type": "function"
    },
    {
      "inputs": [],
      "name": "signer",
      "outputs": [
        {
          "internalType": "address",
          "name": "",
          "type": "address"
        }
      ],
      "stateMutability": "view",
      "type": "function"
    },
    {
      "inputs": [
        {
          "internalType": "bool",
          "name": "_state",
          "type": "bool"
        }
      ],
      "name": "switchMaintenance",
      "outputs": [],
      "stateMutability": "nonpayable",
      "type": "function"
    },
    {
      "inputs": [
        {
          "internalType": "uint256",
          "name": "",
          "type": "uint256"
        }
      ],
      "name": "tokens",
      "outputs": [
        {
          "internalType": "address",
          "name": "",
          "type": "address"
        }
      ],
      "stateMutability": "view",
      "type": "function"
    },
    {
      "inputs": [
        {
          "internalType": "bytes32[]",
          "name": "_txHashes",
          "type": "bytes32[]"
        }
      ],
      "name": "transfer",
      "outputs": [],
      "stateMutability": "nonpayable",
      "type": "function"
    },
    {
      "inputs": [
        {
          "internalType": "address",
          "name": "",
          "type": "address"
        }
      ],
      "name": "validatorIds",
      "outputs": [
        {
          "internalType": "uint16",
          "name": "",
          "type": "uint16"
        }
      ],
      "stateMutability": "view",
      "type": "function"
    },
    {
      "inputs": [
        {
          "internalType": "uint256",
          "name": "",
          "type": "uint256"
        }
      ],
      "name": "validators",
      "outputs": [
        {
          "internalType": "address",
          "name": "",
          "type": "address"
        }
      ],
      "stateMutability": "view",
      "type": "function"
    },
    {
      "inputs": [
        {
          "internalType": "address",
          "name": "_token",
          "type": "address"
        },
        {
          "internalType": "uint256",
          "name": "_amount",
          "type": "uint256"
        }
      ],
      "name": "withdrawFunds",
      "outputs": [],
      "stateMutability": "nonpayable",
      "type": "function"
    }
  ],
  "bytecode": "0x60a06040523480156200001157600080fd5b5060405162005aea38038062005aea83398181016040528101906200003791906200011c565b3373ffffffffffffffffffffffffffffffffffffffff1660808173ffffffffffffffffffffffffffffffffffffffff1681525050806000806101000a81548173ffffffffffffffffffffffffffffffffffffffff021916908373ffffffffffffffffffffffffffffffffffffffff160217905550506200014e565b600080fd5b600073ffffffffffffffffffffffffffffffffffffffff82169050919050565b6000620000e482620000b7565b9050919050565b620000f681620000d7565b81146200010257600080fd5b50565b6000815190506200011681620000eb565b92915050565b600060208284031215620001355762000134620000b2565b5b6000620001458482850162000105565b91505092915050565b60805161592c620001be600039600081816110a40152818161130c015281816114af015281816116f7015281816117c50152818161196b01528181611aa001528181611d6301528181611ec7015281816123f3015281816129c20152818161328d0152613938015261592c6000f3fe60806040526004361061021a5760003560e01c80639374e81611610123578063c1075329116100ab578063f65b7adb1161006f578063f65b7adb14610823578063f851a4401461084c578063facd743b14610877578063fb6d6b7f146108b4578063fd0197c3146108f15761021a565b8063c107532914610717578063d5ff83a614610740578063e6ba9b9e1461077d578063ec95bfe7146107a6578063f5a3b85e146107e65761021a565b8063b91ac788116100f2578063b91ac7881461062d578063ba7a82cc1461066c578063bc4b336514610695578063bc9b96c7146106b1578063bed821be146106da5761021a565b80639374e8161461054b578063a1aa9e8514610576578063a8e28ad1146105b3578063a999c015146105f05761021a565b80636792a15f116101a657806382e717f71161017557806382e717f714610451578063881d8a401461047c5780638c0bd916146104b95780638da5cb5b146104f757806390a2005b146105225761021a565b80636792a15f146103ad5780636c19e783146103d657806370223952146103ff578063704b6c02146104285761021a565b806335aa2e44116101ed57806335aa2e44146102b857806342261065146102f5578063429625d31461031e5780634f64b2be14610347578063592f9878146103845761021a565b80630b0fdb4e1461021f57806320e8c56514610248578063238ac933146102645780632599c0371461028f575b600080fd5b34801561022b57600080fd5b506102466004803603810190610241919061415c565b61091a565b005b610262600480360381019061025d9190614203565b610ccd565b005b34801561027057600080fd5b50610279611027565b6040516102869190614279565b60405180910390f35b34801561029b57600080fd5b506102b660048036038101906102b19190614294565b61104d565b005b3480156102c457600080fd5b506102df60048036038101906102da91906142d4565b611276565b6040516102ec9190614279565b60405180910390f35b34801561030157600080fd5b5061031c60048036038101906103179190614339565b6112b5565b005b34801561032a57600080fd5b5061034560048036038101906103409190614379565b611458565b005b34801561035357600080fd5b5061036e600480360381019061036991906142d4565b611661565b60405161037b9190614279565b60405180910390f35b34801561039057600080fd5b506103ab60048036038101906103a69190614406565b6116a0565b005b3480156103b957600080fd5b506103d460048036038101906103cf9190614433565b61176e565b005b3480156103e257600080fd5b506103fd60048036038101906103f89190614473565b611914565b005b34801561040b57600080fd5b5061042660048036038101906104219190614563565b611a49565b005b34801561043457600080fd5b5061044f600480360381019061044a9190614473565b611d61565b005b34801561045d57600080fd5b50610466611e3f565b60405161047391906145bb565b60405180910390f35b34801561048857600080fd5b506104a3600480360381019061049e91906142d4565b611e53565b6040516104b09190614279565b60405180910390f35b3480156104c557600080fd5b506104e060048036038101906104db9190614473565b611e86565b6040516104ee9291906145e5565b60405180910390f35b34801561050357600080fd5b5061050c611ec5565b6040516105199190614279565b60405180910390f35b34801561052e57600080fd5b5061054960048036038101906105449190614707565b611ee9565b005b34801561055757600080fd5b50610560612238565b60405161056d9190614750565b60405180910390f35b34801561058257600080fd5b5061059d6004803603810190610598919061476b565b61224b565b6040516105aa9190614856565b60405180910390f35b3480156105bf57600080fd5b506105da60048036038101906105d59190614406565b6122e1565b6040516105e79190614750565b60405180910390f35b3480156105fc57600080fd5b5061061760048036038101906106129190614473565b612301565b60405161062491906145bb565b60405180910390f35b34801561063957600080fd5b50610654600480360381019061064f91906142d4565b612322565b60405161066393929190614887565b60405180910390f35b34801561067857600080fd5b50610693600480360381019061068e9190614339565b61239c565b005b6106af60048036038101906106aa9190614294565b61265d565b005b3480156106bd57600080fd5b506106d860048036038101906106d39190614563565b61296b565b005b3480156106e657600080fd5b5061070160048036038101906106fc9190614294565b612c4f565b60405161070e9190614279565b60405180910390f35b34801561072357600080fd5b5061073e60048036038101906107399190614294565b612da6565b005b34801561074c57600080fd5b5061076760048036038101906107629190614294565b613123565b6040516107749190614750565b60405180910390f35b34801561078957600080fd5b506107a4600480360381019061079f9190614473565b613236565b005b3480156107b257600080fd5b506107cd60048036038101906107c8919061476b565b613387565b6040516107dd94939291906148be565b60405180910390f35b3480156107f257600080fd5b5061080d60048036038101906108089190614473565b6133f2565b60405161081a9190614750565b60405180910390f35b34801561082f57600080fd5b5061084a60048036038101906108459190614707565b613412565b005b34801561085857600080fd5b50610861613714565b60405161086e9190614279565b60405180910390f35b34801561088357600080fd5b5061089e60048036038101906108999190614473565b613738565b6040516108ab9190614750565b60405180910390f35b3480156108c057600080fd5b506108db60048036038101906108d69190614903565b6137eb565b6040516108e89190614750565b60405180910390f35b3480156108fd57600080fd5b5061091860048036038101906109139190614943565b6138e1565b005b600160009054906101000a900473ffffffffffffffffffffffffffffffffffffffff1673ffffffffffffffffffffffffffffffffffffffff163373ffffffffffffffffffffffffffffffffffffffff161461097457600080fd5b60005b8151811015610cc957600082828151811061099557610994614970565b5b60200260200101516000815181106109b0576109af614970565b5b602002602001015190506000600a60008373ffffffffffffffffffffffffffffffffffffffff1673ffffffffffffffffffffffffffffffffffffffff16815260200190815260200160002060000160009054906101000a900461ffff16905060008161ffff1611610a56576040517f08c379a0000000000000000000000000000000000000000000000000000000008152600401610a4d90614a22565b60405180910390fd5b6000848481518110610a6b57610a6a614970565b5b6020026020010151600181518110610a8657610a85614970565b5b602002602001015190506000858581518110610aa557610aa4614970565b5b6020026020010151600281518110610ac057610abf614970565b5b602002602001015190506000868681518110610adf57610ade614970565b5b6020026020010151600381518110610afa57610af9614970565b5b602002602001015190506000878781518110610b1957610b18614970565b5b6020026020010151600481518110610b3457610b33614970565b5b602002602001015160001b905060008311610b84576040517f08c379a0000000000000000000000000000000000000000000000000000000008152600401610b7b90614ab4565b60405180910390fd5b6000600860008381526020019081526020016000206001015414610bdd576040517f08c379a0000000000000000000000000000000000000000000000000000000008152600401610bd490614b20565b60405180910390fd5b846008600083815260200190815260200160002060030160006101000a81548161ffff021916908361ffff160217905550836008600083815260200190815260200160002060000160006101000a81548173ffffffffffffffffffffffffffffffffffffffff021916908373ffffffffffffffffffffffffffffffffffffffff160217905550826008600083815260200190815260200160002060010181905550807f88d7bcd843e2165a6c1af35477903ac8a5a044559309baeb9c3d295fca4e6db983604051610cae9190614b40565b60405180910390a25050505050508080600101915050610977565b5050565b600160149054906101000a900460ff1615610ce757600080fd5b60008211610d2a576040517f08c379a0000000000000000000000000000000000000000000000000000000008152600401610d2190614bcd565b60405180910390fd5b600073ffffffffffffffffffffffffffffffffffffffff163373ffffffffffffffffffffffffffffffffffffffff1614158015610d945750600073ffffffffffffffffffffffffffffffffffffffff168473ffffffffffffffffffffffffffffffffffffffff1614155b610dd3576040517f08c379a0000000000000000000000000000000000000000000000000000000008152600401610dca90614c39565b60405180910390fd5b6000600a60008573ffffffffffffffffffffffffffffffffffffffff1673ffffffffffffffffffffffffffffffffffffffff16815260200190815260200160002060000160009054906101000a900461ffff1661ffff1611610e6a576040517f08c379a0000000000000000000000000000000000000000000000000000000008152600401610e6190614ccb565b60405180910390fd5b600073ffffffffffffffffffffffffffffffffffffffff168373ffffffffffffffffffffffffffffffffffffffff1603610ee557813414610ee0576040517f08c379a0000000000000000000000000000000000000000000000000000000008152600401610ed790614d37565b60405180910390fd5b610fba565b600a60008473ffffffffffffffffffffffffffffffffffffffff1673ffffffffffffffffffffffffffffffffffffffff16815260200190815260200160002060000160029054906101000a900460ff1615610fac578273ffffffffffffffffffffffffffffffffffffffff166379cc679033846040518363ffffffff1660e01b8152600401610f75929190614d57565b600060405180830381600087803b158015610f8f57600080fd5b505af1158015610fa3573d6000803e3d6000fd5b50505050610fb9565b610fb8833330856139db565b5b5b8373ffffffffffffffffffffffffffffffffffffffff168373ffffffffffffffffffffffffffffffffffffffff167fdcbc1c05240f31ff3ad067ef1ee35ce4997762752e3a095284754544f4c709d78484604051611019929190614d80565b60405180910390a350505050565b600160009054906101000a900473ffffffffffffffffffffffffffffffffffffffff1681565b60008054906101000a900473ffffffffffffffffffffffffffffffffffffffff1673ffffffffffffffffffffffffffffffffffffffff163373ffffffffffffffffffffffffffffffffffffffff1614806110f257507f000000000000000000000000000000000000000000000000000000000000000073ffffffffffffffffffffffffffffffffffffffff163373ffffffffffffffffffffffffffffffffffffffff16145b6110fb57600080fd5b6111058282613123565b611144576040517f08c379a000000000000000000000000000000000000000000000000000000000815260040161113b90614df5565b60405180910390fd5b60005b600680549050811015611271578273ffffffffffffffffffffffffffffffffffffffff166006828154811061117f5761117e614970565b5b906000526020600020906003020160000160009054906101000a900473ffffffffffffffffffffffffffffffffffffffff1673ffffffffffffffffffffffffffffffffffffffff161480156111f8575081600682815481106111e4576111e3614970565b5b906000526020600020906003020160010154145b801561122a5750600760008261ffff1661ffff16815260200190815260200160002060009054906101000a900460ff16155b15611264576001600760008361ffff1661ffff16815260200190815260200160002060006101000a81548160ff0219169083151502179055505b8080600101915050611147565b505050565b6003818154811061128657600080fd5b906000526020600020016000915054906101000a900473ffffffffffffffffffffffffffffffffffffffff1681565b60008054906101000a900473ffffffffffffffffffffffffffffffffffffffff1673ffffffffffffffffffffffffffffffffffffffff163373ffffffffffffffffffffffffffffffffffffffff16148061135a57507f000000000000000000000000000000000000000000000000000000000000000073ffffffffffffffffffffffffffffffffffffffff163373ffffffffffffffffffffffffffffffffffffffff16145b61136357600080fd5b6000600a60008473ffffffffffffffffffffffffffffffffffffffff1673ffffffffffffffffffffffffffffffffffffffff16815260200190815260200160002060000160009054906101000a900461ffff1661ffff16116113fa576040517f08c379a00000000000000000000000000000000000000000000000000000000081526004016113f190614e87565b60405180910390fd5b80600a60008473ffffffffffffffffffffffffffffffffffffffff1673ffffffffffffffffffffffffffffffffffffffff16815260200190815260200160002060000160026101000a81548160ff0219169083151502179055505050565b60008054906101000a900473ffffffffffffffffffffffffffffffffffffffff1673ffffffffffffffffffffffffffffffffffffffff163373ffffffffffffffffffffffffffffffffffffffff1614806114fd57507f000000000000000000000000000000000000000000000000000000000000000073ffffffffffffffffffffffffffffffffffffffff163373ffffffffffffffffffffffffffffffffffffffff16145b61150657600080fd5b6115108383613123565b15611550576040517f08c379a000000000000000000000000000000000000000000000000000000000815260040161154790614ef3565b60405180910390fd5b600660405180606001604052808573ffffffffffffffffffffffffffffffffffffffff1681526020018481526020018373ffffffffffffffffffffffffffffffffffffffff16815250908060018154018082558091505060019003906000526020600020906003020160009091909190915060008201518160000160006101000a81548173ffffffffffffffffffffffffffffffffffffffff021916908373ffffffffffffffffffffffffffffffffffffffff1602179055506020820151816001015560408201518160020160006101000a81548173ffffffffffffffffffffffffffffffffffffffff021916908373ffffffffffffffffffffffffffffffffffffffff1602179055505050505050565b600b818154811061167157600080fd5b906000526020600020016000915054906101000a900473ffffffffffffffffffffffffffffffffffffffff1681565b60008054906101000a900473ffffffffffffffffffffffffffffffffffffffff1673ffffffffffffffffffffffffffffffffffffffff163373ffffffffffffffffffffffffffffffffffffffff16148061174557507f000000000000000000000000000000000000000000000000000000000000000073ffffffffffffffffffffffffffffffffffffffff163373ffffffffffffffffffffffffffffffffffffffff16145b61174e57600080fd5b80600960006101000a81548161ffff021916908361ffff16021790555050565b60008054906101000a900473ffffffffffffffffffffffffffffffffffffffff1673ffffffffffffffffffffffffffffffffffffffff163373ffffffffffffffffffffffffffffffffffffffff16148061181357507f000000000000000000000000000000000000000000000000000000000000000073ffffffffffffffffffffffffffffffffffffffff163373ffffffffffffffffffffffffffffffffffffffff16145b61181c57600080fd5b600073ffffffffffffffffffffffffffffffffffffffff166005600084815260200190815260200160002060009054906101000a900473ffffffffffffffffffffffffffffffffffffffff1673ffffffffffffffffffffffffffffffffffffffff16146118be576040517f08c379a00000000000000000000000000000000000000000000000000000000081526004016118b590614f85565b60405180910390fd5b806005600084815260200190815260200160002060006101000a81548173ffffffffffffffffffffffffffffffffffffffff021916908373ffffffffffffffffffffffffffffffffffffffff1602179055505050565b60008054906101000a900473ffffffffffffffffffffffffffffffffffffffff1673ffffffffffffffffffffffffffffffffffffffff163373ffffffffffffffffffffffffffffffffffffffff1614806119b957507f000000000000000000000000000000000000000000000000000000000000000073ffffffffffffffffffffffffffffffffffffffff163373ffffffffffffffffffffffffffffffffffffffff16145b6119c257600080fd5b80600160006101000a81548173ffffffffffffffffffffffffffffffffffffffff021916908373ffffffffffffffffffffffffffffffffffffffff1602179055508073ffffffffffffffffffffffffffffffffffffffff167fffafe5c39be83f4bcf20d7e1a150f6e21c1858ea0948315ba84b6b1c386d45bb60405160405180910390a250565b60008054906101000a900473ffffffffffffffffffffffffffffffffffffffff1673ffffffffffffffffffffffffffffffffffffffff163373ffffffffffffffffffffffffffffffffffffffff161480611aee57507f000000000000000000000000000000000000000000000000000000000000000073ffffffffffffffffffffffffffffffffffffffff163373ffffffffffffffffffffffffffffffffffffffff16145b611af757600080fd5b60005b8151811015611d5d5761ffff80166003805490501115611b4f576040517f08c379a0000000000000000000000000000000000000000000000000000000008152600401611b4690615017565b60405180910390fd5b600160026000848481518110611b6857611b67614970565b5b602002602001015173ffffffffffffffffffffffffffffffffffffffff1673ffffffffffffffffffffffffffffffffffffffff16815260200190815260200160002060009054906101000a900461ffff1661ffff1610611bfd576040517f08c379a0000000000000000000000000000000000000000000000000000000008152600401611bf490615083565b60405180910390fd5b6003828281518110611c1257611c11614970565b5b60200260200101519080600181540180825580915050600190039060005260206000200160009091909190916101000a81548173ffffffffffffffffffffffffffffffffffffffff021916908373ffffffffffffffffffffffffffffffffffffffff16021790555060038054905060026000848481518110611c9757611c96614970565b5b602002602001015173ffffffffffffffffffffffffffffffffffffffff1673ffffffffffffffffffffffffffffffffffffffff16815260200190815260200160002060006101000a81548161ffff021916908361ffff160217905550818181518110611d0657611d05614970565b5b602002602001015173ffffffffffffffffffffffffffffffffffffffff167f29b4645f23b856eccf12b3b38e036c3221ca1b5a9afa2a83aea7ead34e47987c60405160405180910390a28080600101915050611afa565b5050565b7f000000000000000000000000000000000000000000000000000000000000000073ffffffffffffffffffffffffffffffffffffffff163373ffffffffffffffffffffffffffffffffffffffff1614611db957600080fd5b806000806101000a81548173ffffffffffffffffffffffffffffffffffffffff021916908373ffffffffffffffffffffffffffffffffffffffff1602179055508073ffffffffffffffffffffffffffffffffffffffff167f71614071b88dee5e0b2ae578a9dd7b2ebbe9ae832ba419dc0242cd065a290b6c60405160405180910390a250565b600960009054906101000a900461ffff1681565b60056020528060005260406000206000915054906101000a900473ffffffffffffffffffffffffffffffffffffffff1681565b600a6020528060005260406000206000915090508060000160009054906101000a900461ffff16908060000160029054906101000a900460ff16905082565b7f000000000000000000000000000000000000000000000000000000000000000081565b600160009054906101000a900473ffffffffffffffffffffffffffffffffffffffff1673ffffffffffffffffffffffffffffffffffffffff163373ffffffffffffffffffffffffffffffffffffffff1614611f4357600080fd5b60005b8151811015612234576000828281518110611f6457611f63614970565b5b602002602001015190506008600082815260200190815260200160002060030160029054906101000a900460ff16158015611fcc5750600960009054906101000a900461ffff1661ffff16600860008381526020019081526020016000206002018054905010155b156122265760006008600083815260200190815260200160002060030160009054906101000a900461ffff1690506000600b60018361200b91906150d2565b61ffff16815481106120205761201f614970565b5b9060005260206000200160009054906101000a900473ffffffffffffffffffffffffffffffffffffffff16905060006008600085815260200190815260200160002060000160009054906101000a900473ffffffffffffffffffffffffffffffffffffffff16905060006008600086815260200190815260200160002060010154905060016008600087815260200190815260200160002060030160026101000a81548160ff021916908315150217905550600073ffffffffffffffffffffffffffffffffffffffff168373ffffffffffffffffffffffffffffffffffffffff1603612115576121108282613b14565b6121e9565b600a60008473ffffffffffffffffffffffffffffffffffffffff1673ffffffffffffffffffffffffffffffffffffffff16815260200190815260200160002060000160029054906101000a900460ff16156121dc578273ffffffffffffffffffffffffffffffffffffffff166340c10f1983836040518363ffffffff1660e01b81526004016121a5929190614d57565b600060405180830381600087803b1580156121bf57600080fd5b505af11580156121d3573d6000803e3d6000fd5b505050506121e8565b6121e7838383613c14565b5b5b847fd6b8994330811aec2a4ca50915b6afc26758aa7933a94f65ea7e4ee74de73235826040516122199190614b40565b60405180910390a2505050505b508080600101915050611f46565b5050565b600160149054906101000a900460ff1681565b6060600860008381526020019081526020016000206002018054806020026020016040519081016040528092919081815260200182805480156122d557602002820191906000526020600020906000905b82829054906101000a900461ffff1661ffff168152602001906002019060208260010104928301926001038202915080841161229c5790505b50505050509050919050565b60076020528060005260406000206000915054906101000a900460ff1681565b60026020528060005260406000206000915054906101000a900461ffff1681565b6006818154811061233257600080fd5b90600052602060002090600302016000915090508060000160009054906101000a900473ffffffffffffffffffffffffffffffffffffffff16908060010154908060020160009054906101000a900473ffffffffffffffffffffffffffffffffffffffff16905083565b60008054906101000a900473ffffffffffffffffffffffffffffffffffffffff1673ffffffffffffffffffffffffffffffffffffffff163373ffffffffffffffffffffffffffffffffffffffff16148061244157507f000000000000000000000000000000000000000000000000000000000000000073ffffffffffffffffffffffffffffffffffffffff163373ffffffffffffffffffffffffffffffffffffffff16145b61244a57600080fd5b6000600260008473ffffffffffffffffffffffffffffffffffffffff1673ffffffffffffffffffffffffffffffffffffffff16815260200190815260200160002060009054906101000a900461ffff1661ffff16116124de576040517f08c379a00000000000000000000000000000000000000000000000000000000081526004016124d59061517a565b60405180910390fd5b801515600460008473ffffffffffffffffffffffffffffffffffffffff1673ffffffffffffffffffffffffffffffffffffffff16815260200190815260200160002060009054906101000a900460ff16151503612570576040517f08c379a00000000000000000000000000000000000000000000000000000000081526004016125679061520c565b60405180910390fd5b80600460008473ffffffffffffffffffffffffffffffffffffffff1673ffffffffffffffffffffffffffffffffffffffff16815260200190815260200160002060006101000a81548160ff0219169083151502179055508015612615578173ffffffffffffffffffffffffffffffffffffffff167fb625c55cf7e37b54fcd18bc4edafdf3f4f9acd59a5ec824c77c795dcb2d6507060405160405180910390a2612659565b8173ffffffffffffffffffffffffffffffffffffffff167f29b4645f23b856eccf12b3b38e036c3221ca1b5a9afa2a83aea7ead34e47987c60405160405180910390a25b5050565b600160149054906101000a900460ff161561267757600080fd5b600081116126ba576040517f08c379a00000000000000000000000000000000000000000000000000000000081526004016126b190614bcd565b60405180910390fd5b6000600a60008473ffffffffffffffffffffffffffffffffffffffff1673ffffffffffffffffffffffffffffffffffffffff16815260200190815260200160002060000160009054906101000a900461ffff1661ffff1611612751576040517f08c379a00000000000000000000000000000000000000000000000000000000081526004016127489061529e565b60405180910390fd5b600a60008373ffffffffffffffffffffffffffffffffffffffff1673ffffffffffffffffffffffffffffffffffffffff16815260200190815260200160002060000160029054906101000a900460ff16156127e1576040517f08c379a00000000000000000000000000000000000000000000000000000000081526004016127d890615330565b60405180910390fd5b600073ffffffffffffffffffffffffffffffffffffffff168273ffffffffffffffffffffffffffffffffffffffff160361285c57803414612857576040517f08c379a000000000000000000000000000000000000000000000000000000000815260040161284e90614d37565b60405180910390fd5b612869565b612868823330846139db565b5b80600a60008473ffffffffffffffffffffffffffffffffffffffff1673ffffffffffffffffffffffffffffffffffffffff16815260200190815260200160002060010160003373ffffffffffffffffffffffffffffffffffffffff1673ffffffffffffffffffffffffffffffffffffffff16815260200190815260200160002060008282546128f89190615350565b925050819055508173ffffffffffffffffffffffffffffffffffffffff163373ffffffffffffffffffffffffffffffffffffffff167facbb4ecc091b4d69b065bfef34c642f6c715856a015911695a851973491c6ccb83600060405161295f929190615384565b60405180910390a35050565b60008054906101000a900473ffffffffffffffffffffffffffffffffffffffff1673ffffffffffffffffffffffffffffffffffffffff163373ffffffffffffffffffffffffffffffffffffffff161480612a1057507f000000000000000000000000000000000000000000000000000000000000000073ffffffffffffffffffffffffffffffffffffffff163373ffffffffffffffffffffffffffffffffffffffff16145b612a1957600080fd5b60005b8151811015612c4b5761ffff8016600b805490501115612a71576040517f08c379a0000000000000000000000000000000000000000000000000000000008152600401612a689061541f565b60405180910390fd5b6001600a6000848481518110612a8a57612a89614970565b5b602002602001015173ffffffffffffffffffffffffffffffffffffffff1673ffffffffffffffffffffffffffffffffffffffff16815260200190815260200160002060000160009054906101000a900461ffff1661ffff1610612b22576040517f08c379a0000000000000000000000000000000000000000000000000000000008152600401612b199061548b565b60405180910390fd5b600b828281518110612b3757612b36614970565b5b60200260200101519080600181540180825580915050600190039060005260206000200160009091909190916101000a81548173ffffffffffffffffffffffffffffffffffffffff021916908373ffffffffffffffffffffffffffffffffffffffff160217905550600b80549050600a6000848481518110612bbc57612bbb614970565b5b602002602001015173ffffffffffffffffffffffffffffffffffffffff1673ffffffffffffffffffffffffffffffffffffffff16815260200190815260200160002060000160006101000a81548161ffff021916908361ffff160217905550612c3e828281518110612c3157612c30614970565b5b6020026020010151613d4a565b8080600101915050612a1c565b5050565b600080600090505b600680549050811015612d9a578373ffffffffffffffffffffffffffffffffffffffff1660068281548110612c8f57612c8e614970565b5b906000526020600020906003020160000160009054906101000a900473ffffffffffffffffffffffffffffffffffffffff1673ffffffffffffffffffffffffffffffffffffffff16148015612d0857508260068281548110612cf457612cf3614970565b5b906000526020600020906003020160010154145b8015612d3a5750600760008261ffff1661ffff16815260200190815260200160002060009054906101000a900460ff16155b15612d8d5760068181548110612d5357612d52614970565b5b906000526020600020906003020160020160009054906101000a900473ffffffffffffffffffffffffffffffffffffffff16915050612da0565b8080600101915050612c57565b50600090505b92915050565b60008111612de9576040517f08c379a0000000000000000000000000000000000000000000000000000000008152600401612de090614bcd565b60405180910390fd5b6000600a60008473ffffffffffffffffffffffffffffffffffffffff1673ffffffffffffffffffffffffffffffffffffffff16815260200190815260200160002060000160009054906101000a900461ffff1661ffff1611612e80576040517f08c379a0000000000000000000000000000000000000000000000000000000008152600401612e779061529e565b60405180910390fd5b600a60008373ffffffffffffffffffffffffffffffffffffffff1673ffffffffffffffffffffffffffffffffffffffff16815260200190815260200160002060000160029054906101000a900460ff1615612f10576040517f08c379a0000000000000000000000000000000000000000000000000000000008152600401612f0790615330565b60405180910390fd5b80600a60008473ffffffffffffffffffffffffffffffffffffffff1673ffffffffffffffffffffffffffffffffffffffff16815260200190815260200160002060010160003373ffffffffffffffffffffffffffffffffffffffff1673ffffffffffffffffffffffffffffffffffffffff168152602001908152602001600020541015612fd2576040517f08c379a0000000000000000000000000000000000000000000000000000000008152600401612fc990614d37565b60405180910390fd5b80600a60008473ffffffffffffffffffffffffffffffffffffffff1673ffffffffffffffffffffffffffffffffffffffff16815260200190815260200160002060010160003373ffffffffffffffffffffffffffffffffffffffff1673ffffffffffffffffffffffffffffffffffffffff168152602001908152602001600020600082825461306191906154ab565b92505081905550600073ffffffffffffffffffffffffffffffffffffffff168273ffffffffffffffffffffffffffffffffffffffff16036130ab576130a63382613b14565b6130b7565b6130b6823383613c14565b5b8173ffffffffffffffffffffffffffffffffffffffff163373ffffffffffffffffffffffffffffffffffffffff167facbb4ecc091b4d69b065bfef34c642f6c715856a015911695a851973491c6ccb836001604051613117929190615384565b60405180910390a35050565b600080600090505b60068054905081101561322a578373ffffffffffffffffffffffffffffffffffffffff166006828154811061316357613162614970565b5b906000526020600020906003020160000160009054906101000a900473ffffffffffffffffffffffffffffffffffffffff1673ffffffffffffffffffffffffffffffffffffffff161480156131dc575082600682815481106131c8576131c7614970565b5b906000526020600020906003020160010154145b801561320e5750600760008261ffff1661ffff16815260200190815260200160002060009054906101000a900460ff16155b1561321d576001915050613230565b808060010191505061312b565b50600090505b92915050565b60008054906101000a900473ffffffffffffffffffffffffffffffffffffffff1673ffffffffffffffffffffffffffffffffffffffff163373ffffffffffffffffffffffffffffffffffffffff1614806132db57507f000000000000000000000000000000000000000000000000000000000000000073ffffffffffffffffffffffffffffffffffffffff163373ffffffffffffffffffffffffffffffffffffffff16145b6132e457600080fd5b6000600a60008373ffffffffffffffffffffffffffffffffffffffff1673ffffffffffffffffffffffffffffffffffffffff16815260200190815260200160002060000160009054906101000a900461ffff1661ffff161161337b576040517f08c379a000000000000000000000000000000000000000000000000000000000815260040161337290614e87565b60405180910390fd5b61338481613d4a565b50565b60086020528060005260406000206000915090508060000160009054906101000a900473ffffffffffffffffffffffffffffffffffffffff16908060010154908060030160009054906101000a900461ffff16908060030160029054906101000a900460ff16905084565b60046020528060005260406000206000915054906101000a900460ff1681565b61341b33613738565b61342457600080fd5b60005b815181101561352e5760006008600084848151811061344957613448614970565b5b6020026020010151815260200190815260200160002060010154116134a3576040517f08c379a000000000000000000000000000000000000000000000000000000000815260040161349a9061552b565b60405180910390fd5b600860008383815181106134ba576134b9614970565b5b6020026020010151815260200190815260200160002060030160029054906101000a900460ff1615613521576040517f08c379a000000000000000000000000000000000000000000000000000000000815260040161351890615597565b60405180910390fd5b8080600101915050613427565b5060005b81518110156137105761355f82828151811061355157613550614970565b5b6020026020010151336137eb565b1561359f576040517f08c379a000000000000000000000000000000000000000000000000000000000815260040161359690615603565b60405180910390fd5b600860008383815181106135b6576135b5614970565b5b60200260200101518152602001908152602001600020600201600260003373ffffffffffffffffffffffffffffffffffffffff1673ffffffffffffffffffffffffffffffffffffffff16815260200190815260200160002060009054906101000a900461ffff1690806001815401808255809150506001900390600052602060002090601091828204019190066002029091909190916101000a81548161ffff021916908361ffff16021790555081818151811061367757613676614970565b5b60200260200101517fbd02d67b10ed0ddd3484c316d39325dd64a45e11ae9848548710c78427e003b1600260003373ffffffffffffffffffffffffffffffffffffffff1673ffffffffffffffffffffffffffffffffffffffff16815260200190815260200160002060009054906101000a900461ffff166040516136fb91906145bb565b60405180910390a28080600101915050613532565b5050565b60008054906101000a900473ffffffffffffffffffffffffffffffffffffffff1681565b600080600260008473ffffffffffffffffffffffffffffffffffffffff1673ffffffffffffffffffffffffffffffffffffffff16815260200190815260200160002060009054906101000a900461ffff1661ffff161180156137e45750600460008373ffffffffffffffffffffffffffffffffffffffff1673ffffffffffffffffffffffffffffffffffffffff16815260200190815260200160002060009054906101000a900460ff16155b9050919050565b600080600260008473ffffffffffffffffffffffffffffffffffffffff1673ffffffffffffffffffffffffffffffffffffffff16815260200190815260200160002060009054906101000a900461ffff16905060005b60086000868152602001908152602001600020600201805490508110156138d4578161ffff1660086000878152602001908152602001600020600201828154811061388f5761388e614970565b5b90600052602060002090601091828204019190066002029054906101000a900461ffff1661ffff16036138c7576001925050506138db565b8080600101915050613841565b5060009150505b92915050565b60008054906101000a900473ffffffffffffffffffffffffffffffffffffffff1673ffffffffffffffffffffffffffffffffffffffff163373ffffffffffffffffffffffffffffffffffffffff16148061398657507f000000000000000000000000000000000000000000000000000000000000000073ffffffffffffffffffffffffffffffffffffffff163373ffffffffffffffffffffffffffffffffffffffff16145b61398f57600080fd5b80600160146101000a81548160ff0219169083151502179055508015157fa08415ec513bd09761cb266f18f2b5b508b324bb83d18e398d1abc790d0ecfd060405160405180910390a250565b6000808573ffffffffffffffffffffffffffffffffffffffff166323b872dd868686604051602401613a0f93929190615623565b6040516020818303038152906040529060e01b6020820180517bffffffffffffffffffffffffffffffffffffffffffffffffffffffff8381831617835250505050604051613a5d91906156cb565b6000604051808303816000865af19150503d8060008114613a9a576040519150601f19603f3d011682016040523d82523d6000602084013e613a9f565b606091505b5091509150818015613acd5750600081511480613acc575080806020019051810190613acb91906156f7565b5b5b613b0c576040517f08c379a0000000000000000000000000000000000000000000000000000000008152600401613b0390615796565b60405180910390fd5b505050505050565b60008273ffffffffffffffffffffffffffffffffffffffff1682600067ffffffffffffffff811115613b4957613b48613f02565b5b6040519080825280601f01601f191660200182016040528015613b7b5781602001600182028036833780820191505090505b50604051613b8991906156cb565b60006040518083038185875af1925050503d8060008114613bc6576040519150601f19603f3d011682016040523d82523d6000602084013e613bcb565b606091505b5050905080613c0f576040517f08c379a0000000000000000000000000000000000000000000000000000000008152600401613c0690615828565b60405180910390fd5b505050565b6000808473ffffffffffffffffffffffffffffffffffffffff1663a9059cbb8585604051602401613c46929190614d57565b6040516020818303038152906040529060e01b6020820180517bffffffffffffffffffffffffffffffffffffffffffffffffffffffff8381831617835250505050604051613c9491906156cb565b6000604051808303816000865af19150503d8060008114613cd1576040519150601f19603f3d011682016040523d82523d6000602084013e613cd6565b606091505b5091509150818015613d045750600081511480613d03575080806020019051810190613d0291906156f7565b5b5b613d43576040517f08c379a0000000000000000000000000000000000000000000000000000000008152600401613d3a90615894565b60405180910390fd5b5050505050565b600073ffffffffffffffffffffffffffffffffffffffff168173ffffffffffffffffffffffffffffffffffffffff1603613dde576000600a60008373ffffffffffffffffffffffffffffffffffffffff1673ffffffffffffffffffffffffffffffffffffffff16815260200190815260200160002060000160026101000a81548160ff021916908315150217905550613ed5565b3073ffffffffffffffffffffffffffffffffffffffff168173ffffffffffffffffffffffffffffffffffffffff16638da5cb5b6040518163ffffffff1660e01b8152600401602060405180830381865afa158015613e40573d6000803e3d6000fd5b505050506040513d601f19601f82011682018060405250810190613e6491906158c9565b73ffffffffffffffffffffffffffffffffffffffff1614600a60008373ffffffffffffffffffffffffffffffffffffffff1673ffffffffffffffffffffffffffffffffffffffff16815260200190815260200160002060000160026101000a81548160ff0219169083151502179055505b50565b6000604051905090565b600080fd5b600080fd5b600080fd5b6000601f19601f8301169050919050565b7f4e487b7100000000000000000000000000000000000000000000000000000000600052604160045260246000fd5b613f3a82613ef1565b810181811067ffffffffffffffff82111715613f5957613f58613f02565b5b80604052505050565b6000613f6c613ed8565b9050613f788282613f31565b919050565b600067ffffffffffffffff821115613f9857613f97613f02565b5b602082029050602081019050919050565b600080fd5b600067ffffffffffffffff821115613fc957613fc8613f02565b5b602082029050602081019050919050565b6000819050919050565b613fed81613fda565b8114613ff857600080fd5b50565b60008135905061400a81613fe4565b92915050565b600061402361401e84613fae565b613f62565b9050808382526020820190506020840283018581111561404657614045613fa9565b5b835b8181101561406f578061405b8882613ffb565b845260208401935050602081019050614048565b5050509392505050565b600082601f83011261408e5761408d613eec565b5b813561409e848260208601614010565b91505092915050565b60006140ba6140b584613f7d565b613f62565b905080838252602082019050602084028301858111156140dd576140dc613fa9565b5b835b8181101561412457803567ffffffffffffffff81111561410257614101613eec565b5b80860161410f8982614079565b855260208501945050506020810190506140df565b5050509392505050565b600082601f83011261414357614142613eec565b5b81356141538482602086016140a7565b91505092915050565b60006020828403121561417257614171613ee2565b5b600082013567ffffffffffffffff8111156141905761418f613ee7565b5b61419c8482850161412e565b91505092915050565b600073ffffffffffffffffffffffffffffffffffffffff82169050919050565b60006141d0826141a5565b9050919050565b6141e0816141c5565b81146141eb57600080fd5b50565b6000813590506141fd816141d7565b92915050565b6000806000806080858703121561421d5761421c613ee2565b5b600061422b878288016141ee565b945050602061423c878288016141ee565b935050604061424d87828801613ffb565b925050606061425e87828801613ffb565b91505092959194509250565b614273816141c5565b82525050565b600060208201905061428e600083018461426a565b92915050565b600080604083850312156142ab576142aa613ee2565b5b60006142b9858286016141ee565b92505060206142ca85828601613ffb565b9150509250929050565b6000602082840312156142ea576142e9613ee2565b5b60006142f884828501613ffb565b91505092915050565b60008115159050919050565b61431681614301565b811461432157600080fd5b50565b6000813590506143338161430d565b92915050565b600080604083850312156143505761434f613ee2565b5b600061435e858286016141ee565b925050602061436f85828601614324565b9150509250929050565b60008060006060848603121561439257614391613ee2565b5b60006143a0868287016141ee565b93505060206143b186828701613ffb565b92505060406143c2868287016141ee565b9150509250925092565b600061ffff82169050919050565b6143e3816143cc565b81146143ee57600080fd5b50565b600081359050614400816143da565b92915050565b60006020828403121561441c5761441b613ee2565b5b600061442a848285016143f1565b91505092915050565b6000806040838503121561444a57614449613ee2565b5b600061445885828601613ffb565b9250506020614469858286016141ee565b9150509250929050565b60006020828403121561448957614488613ee2565b5b6000614497848285016141ee565b91505092915050565b600067ffffffffffffffff8211156144bb576144ba613f02565b5b602082029050602081019050919050565b60006144df6144da846144a0565b613f62565b9050808382526020820190506020840283018581111561450257614501613fa9565b5b835b8181101561452b578061451788826141ee565b845260208401935050602081019050614504565b5050509392505050565b600082601f83011261454a57614549613eec565b5b813561455a8482602086016144cc565b91505092915050565b60006020828403121561457957614578613ee2565b5b600082013567ffffffffffffffff81111561459757614596613ee7565b5b6145a384828501614535565b91505092915050565b6145b5816143cc565b82525050565b60006020820190506145d060008301846145ac565b92915050565b6145df81614301565b82525050565b60006040820190506145fa60008301856145ac565b61460760208301846145d6565b9392505050565b600067ffffffffffffffff82111561462957614628613f02565b5b602082029050602081019050919050565b6000819050919050565b61464d8161463a565b811461465857600080fd5b50565b60008135905061466a81614644565b92915050565b600061468361467e8461460e565b613f62565b905080838252602082019050602084028301858111156146a6576146a5613fa9565b5b835b818110156146cf57806146bb888261465b565b8452602084019350506020810190506146a8565b5050509392505050565b600082601f8301126146ee576146ed613eec565b5b81356146fe848260208601614670565b91505092915050565b60006020828403121561471d5761471c613ee2565b5b600082013567ffffffffffffffff81111561473b5761473a613ee7565b5b614747848285016146d9565b91505092915050565b600060208201905061476560008301846145d6565b92915050565b60006020828403121561478157614780613ee2565b5b600061478f8482850161465b565b91505092915050565b600081519050919050565b600082825260208201905092915050565b6000819050602082019050919050565b6147cd816143cc565b82525050565b60006147df83836147c4565b60208301905092915050565b6000602082019050919050565b600061480382614798565b61480d81856147a3565b9350614818836147b4565b8060005b8381101561484957815161483088826147d3565b975061483b836147eb565b92505060018101905061481c565b5085935050505092915050565b6000602082019050818103600083015261487081846147f8565b905092915050565b61488181613fda565b82525050565b600060608201905061489c600083018661426a565b6148a96020830185614878565b6148b6604083018461426a565b949350505050565b60006080820190506148d3600083018761426a565b6148e06020830186614878565b6148ed60408301856145ac565b6148fa60608301846145d6565b95945050505050565b6000806040838503121561491a57614919613ee2565b5b60006149288582860161465b565b9250506020614939858286016141ee565b9150509250929050565b60006020828403121561495957614958613ee2565b5b600061496784828501614324565b91505092915050565b7f4e487b7100000000000000000000000000000000000000000000000000000000600052603260045260246000fd5b600082825260208201905092915050565b7f6272696467653a20747279696e6720746f206c69737420756e7265676973746560008201527f72656420746f6b656e0000000000000000000000000000000000000000000000602082015250565b6000614a0c60298361499f565b9150614a17826149b0565b604082019050919050565b60006020820190508181036000830152614a3b816149ff565b9050919050565b7f6272696467653a20616d6f756e74206d757374206265206d6f7265207468616e60008201527f207a65726f000000000000000000000000000000000000000000000000000000602082015250565b6000614a9e60258361499f565b9150614aa982614a42565b604082019050919050565b60006020820190508181036000830152614acd81614a91565b9050919050565b7f6272696467653a2074784861736820616c7265616479206c6973746564000000600082015250565b6000614b0a601d8361499f565b9150614b1582614ad4565b602082019050919050565b60006020820190508181036000830152614b3981614afd565b9050919050565b6000602082019050614b556000830184614878565b92915050565b7f6272696467653a20616d6f756e74206d7573742062652067726561746572207460008201527f68616e207a65726f000000000000000000000000000000000000000000000000602082015250565b6000614bb760288361499f565b9150614bc282614b5b565b604082019050919050565b60006020820190508181036000830152614be681614baa565b9050919050565b7f6272696467653a207a65726f2072656365697665720000000000000000000000600082015250565b6000614c2360158361499f565b9150614c2e82614bed565b602082019050919050565b60006020820190508181036000830152614c5281614c16565b9050919050565b7f6272696467653a20756e61626c6520746f206465706f73697420756e7265676960008201527f73746572656420746f6b656e0000000000000000000000000000000000000000602082015250565b6000614cb5602c8361499f565b9150614cc082614c59565b604082019050919050565b60006020820190508181036000830152614ce481614ca8565b9050919050565b7f6272696467653a20696e76616c696420616d6f756e7400000000000000000000600082015250565b6000614d2160168361499f565b9150614d2c82614ceb565b602082019050919050565b60006020820190508181036000830152614d5081614d14565b9050919050565b6000604082019050614d6c600083018561426a565b614d796020830184614878565b9392505050565b6000604082019050614d956000830185614878565b614da26020830184614878565b9392505050565b7f6272696467653a20696e76616c69642070616972000000000000000000000000600082015250565b6000614ddf60148361499f565b9150614dea82614da9565b602082019050919050565b60006020820190508181036000830152614e0e81614dd2565b9050919050565b7f6272696467653a20746f6b656e206d757374206279207265676973746572656460008201527f2066697273740000000000000000000000000000000000000000000000000000602082015250565b6000614e7160268361499f565b9150614e7c82614e15565b604082019050919050565b60006020820190508181036000830152614ea081614e64565b9050919050565b7f6272696467653a207061697220616c7265616479206578697374730000000000600082015250565b6000614edd601b8361499f565b9150614ee882614ea7565b602082019050919050565b60006020820190508181036000830152614f0c81614ed0565b9050919050565b7f6272696467653a206c696e6b20666f72207468697320636f6e7472616374206160008201527f6c72656164792073657400000000000000000000000000000000000000000000602082015250565b6000614f6f602a8361499f565b9150614f7a82614f13565b604082019050919050565b60006020820190508181036000830152614f9e81614f62565b9050919050565b7f6272696467653a2076616c696461746f727320636f756e74206578636565647360008201527f2075696e7431362072616e676500000000000000000000000000000000000000602082015250565b6000615001602d8361499f565b915061500c82614fa5565b604082019050919050565b6000602082019050818103600083015261503081614ff4565b9050919050565b7f6272696467653a2076616c696461746f7220616c726561647920657869737473600082015250565b600061506d60208361499f565b915061507882615037565b602082019050919050565b6000602082019050818103600083015261509c81615060565b9050919050565b7f4e487b7100000000000000000000000000000000000000000000000000000000600052601160045260246000fd5b60006150dd826143cc565b91506150e8836143cc565b9250828203905061ffff811115615102576151016150a3565b5b92915050565b7f6272696467653a20756e61626c6520746f206368616e6765207374617465206f60008201527f6620756e6b6e6f776e2076616c696461746f7200000000000000000000000000602082015250565b600061516460338361499f565b915061516f82615108565b604082019050919050565b6000602082019050818103600083015261519381615157565b9050919050565b7f6272696467653a2076616c696461746f722073746174653a206e6f7468696e6760008201527f20746f206368616e676500000000000000000000000000000000000000000000602082015250565b60006151f6602a8361499f565b91506152018261519a565b604082019050919050565b60006020820190508181036000830152615225816151e9565b9050919050565b7f6272696467653a20746f6b656e2073686f756c6420626520726567697374657260008201527f6564206669727374000000000000000000000000000000000000000000000000602082015250565b600061528860288361499f565b91506152938261522c565b604082019050919050565b600060208201905081810360008301526152b78161527b565b9050919050565b7f6272696467653a206e6f206e65656420616e792066756e647320666f72206f7760008201527f6e656420746f6b656e7300000000000000000000000000000000000000000000602082015250565b600061531a602a8361499f565b9150615325826152be565b604082019050919050565b600060208201905081810360008301526153498161530d565b9050919050565b600061535b82613fda565b915061536683613fda565b925082820190508082111561537e5761537d6150a3565b5b92915050565b60006040820190506153996000830185614878565b6153a660208301846145d6565b9392505050565b7f6272696467653a20746f6b656e7320636f756e7420657863656564732075696e60008201527f7431362072616e67650000000000000000000000000000000000000000000000602082015250565b600061540960298361499f565b9150615414826153ad565b604082019050919050565b60006020820190508181036000830152615438816153fc565b9050919050565b7f6272696467653a20746f6b656e20616c72656164792065786973747300000000600082015250565b6000615475601c8361499f565b91506154808261543f565b602082019050919050565b600060208201905081810360008301526154a481615468565b9050919050565b60006154b682613fda565b91506154c183613fda565b92508282039050818111156154d9576154d86150a3565b5b92915050565b7f6272696467653a20756e6b6e6f776e2074784861736800000000000000000000600082015250565b600061551560168361499f565b9150615520826154df565b602082019050919050565b6000602082019050818103600083015261554481615508565b9050919050565b7f6272696467653a2074784861736820616c72656164792073656e740000000000600082015250565b6000615581601b8361499f565b915061558c8261554b565b602082019050919050565b600060208201905081810360008301526155b081615574565b9050919050565b7f6272696467653a2074784861736820616c726561647920636f6e6669726d6564600082015250565b60006155ed60208361499f565b91506155f8826155b7565b602082019050919050565b6000602082019050818103600083015261561c816155e0565b9050919050565b6000606082019050615638600083018661426a565b615645602083018561426a565b6156526040830184614878565b949350505050565b600081519050919050565b600081905092915050565b60005b8381101561568e578082015181840152602081019050615673565b60008484015250505050565b60006156a58261565a565b6156af8185615665565b93506156bf818560208601615670565b80840191505092915050565b60006156d7828461569a565b915081905092915050565b6000815190506156f18161430d565b92915050565b60006020828403121561570d5761570c613ee2565b5b600061571b848285016156e2565b91505092915050565b7f5472616e7366657248656c7065723a205452414e534645525f46524f4d5f464160008201527f494c454400000000000000000000000000000000000000000000000000000000602082015250565b600061578060248361499f565b915061578b82615724565b604082019050919050565b600060208201905081810360008301526157af81615773565b9050919050565b7f5472616e7366657248656c7065723a204554485f5452414e534645525f46414960008201527f4c45440000000000000000000000000000000000000000000000000000000000602082015250565b600061581260238361499f565b915061581d826157b6565b604082019050919050565b6000602082019050818103600083015261584181615805565b9050919050565b7f5472616e7366657248656c7065723a205452414e534645525f4641494c454400600082015250565b600061587e601f8361499f565b915061588982615848565b602082019050919050565b600060208201905081810360008301526158ad81615871565b9050919050565b6000815190506158c3816141d7565b92915050565b6000602082840312156158df576158de613ee2565b5b60006158ed848285016158b4565b9150509291505056fea2646970667358221220239c90fc0aab9d946e1b72ed2422232c8738daef6364f89db193b7f7cbd565ac64736f6c63430008180033",
  "linkReferences": {},
  "deployedLinkReferences": {}
}